:1000000012003178007A017B017D00900D577C1041
:100010007980120046120027900D677C1079C0127B
:10002000004612002701CFE493F9A3120052DCF737
:100030002279011200467938120046790C120046E6
:10004000790612004622C2B08990D2B112005EC277
:10005000B122D2B08990D2B112005EC2B1227539FC
:100060000075380FD538FDD539F72230B67BB80189
:1000700013752725752664752564D525FDD526F7C6
:10008000D527F12230B662B8021375301D75296686
:10009000752864D528FDD529F7D530F12230B64929
:1000A000B80313753318753266753164D531FDD5D3
:1000B00032F7D533F12230B630B804AF7536157546
:1000C0003564753464D534FDD535F7D536F1227FE6
:1000D0000330B31230B40C30B50630B6160200CF80
:1000E00002085902076D02000330B6FD115E75A0CB
:1000F000FF80DC30B6FD115EB80006BD00130201C2
:100100001EBD0038900F377C107980114611278072
:10011000BE900F477C1079C01146112780B1900F17
:10012000577C10798011461127900F677C1079C099
:10013000114611277803116B78000103BD011B12D2
:10014000089B1209E3120D01120A2D120D0D120D5A
:1001500032120A9320B6EB0200E9BD023812089B66
:10016000120AD4120BBC120C7F75801075A0F71107
:100170006B75801875A0F7116B75801C75A0F71151
:100180006B75801D75A0F7116B1208A8120B7220F9
:10019000B6CE0200E9BD034212089B75802075A00F
:1001A000FE116B75802275A0FE116B1208E112081A
:1001B000C475801075A0F7116B75801275A0F711CA
:1001C0006B1208FE75802075A0DF116B758022759B
:1001D000A0DF116B20B6C40200E9BD043012089BF9
:1001E0001208CE1208E11208C475800975A0FB112F
:1001F0006B75802075A0F7116B75802275A0F711C3
:100200006B1208FE12091120B6D60200E9BD056F77
:1002100012089B75802075A0FE116B75802475A057
:10022000FE116B75802675A0FE116B75800875A098
:10023000FD116B75800C75A0FD116B120AB87580ED
:100240002075A0F7116B75803075A0F7116B758064
:100250003275A0F7116B75803375A0F7116B120C16
:10026000DC75802075A0DF116B75802475A0DF110F
:100270006B75802675A0DF116B20B6970200E9BD73
:10028000065D12089B120AD4120A0875802075A018
:10029000FB116B75803075A0FB116B75803875A0F4
:1002A000FB116B75803A75A0FB116B120B317580D9
:1002B0002075A0EF116B75802875A0EF116B75800C
:1002C0002C75A0EF116B75802E75A0EF116B7580EA
:1002D0002F75A0EF116B120B7220B6A90200E9BDB9
:1002E000073012089B1209241209401209651209ED
:1002F0007875802075A0EF116B75802875A0EF11BF
:100300006B75802975A0EF116B12099D20B6D6027E
:1003100000E9BD083B12089B1209241209407580B0
:100320002075A0FB116B1209651209787580207584
:10033000A0EF116B75802475A0EF116B758025758A
:10034000A0EF116B12099D20B6CE0200E90204371E
:10035000BD09FA12089B7580201209B97580301208
:1003600009B97580381209B975803C1209B97580D0
:100370003E1209B975803F1209B97580201209C073
:100380007580301209C07580381209C075803C1222
:1003900009C075803E1209C075803F1209C0758082
:1003A000201209C77580301209C77580381209C735
:1003B00075803C1209C775803E1209C775803F12CF
:1003C00009C77580201209CE7580301209CE75805C
:1003D000381209CE75803C1209CE75803E1209CEC6
:1003E00075803F1209CE7580201209D575803012B4
:1003F00009D57580381209D575803C1209D57580EC
:100400003E1209D575803F1209D57580201209DC8E
:100410007580301209DC7580381209DC75803C1259
:1004200009DC75803E1209DC75803F1209DC20B6BC
:10043000030200E9020356BD0A4212089B1208CECD
:1004400075801075A0FD116B75801275A0FD116B84
:100450001208EB75802075A0F7116B75802475A0CC
:10046000F7116B75800875A0EF116B75800975A089
:10047000EF116B12091120B6C40200E9BD0B1B126B
:10048000089B1209E3120A08120A2D120A52120AD4
:100490006E120A9320B6EB0200E9BD0C7712089B9E
:1004A00075802075A0FE116B75802875A0FE116BFC
:1004B00075802C75A0FE116B75802075A0FD116BE9
:1004C00075802875A0FD116B75802C75A0FD116BD2
:1004D000120AB8120A5275802B75A0F7116B75803D
:1004E0002075A0EF116B75803075A0EF116B7580D2
:1004F0003175A0EF116B75802075A0DF116B7580D1
:100500002875A0DF116B75802C75A0DF116B20B6EC
:100510008F0200E9BD0D1B12089B120AD4120AF9C2
:10052000120B15120B31120B4D120B7220B6EB028F
:1005300000E9BD0E3812089B120B97120BBC120B70
:10054000E175802075A0F7116B75802875A0F711F3
:100550006B75802C75A0F7116B75802D75A0F71148
:100560006B120C06120C2220B6CE0200E9BD0F451C
:1005700012089B120C4775801075A0FD116B7580D9
:100580001875A0FD116B75801A75A0FD116B120B0B
:100590001575801075A0F7116B75801475A0F71193
:1005A0006B75801675A0F7116B120B4D120C632042
:1005B000B6C10200E9BD103012089B120AD4120A1B
:1005C000F9120B15120B3175802075A0EF116B75A8
:1005D000802875A0EF116B75802A75A0EF116B1242
:1005E0000C6320B6D60200E9BD111B12089B12094C
:1005F000E3120D01120A2D120D0D120D32120A9383
:1006000020B6EB0200E9BD122312089B1209E31287
:100610000AF9120B1575801B75A0FB116B120A529B
:10062000120B4D120A9320B6E30200E9BD131B1210
:10063000089B120AD4120A08120C7F120B31120AFC
:100640006E120B7220B6EB0200E9BD141B12089B60
:10065000120B97120AF9120CB7120A52120B4D1212
:100660000C2220B6EB0200E9BD152312089B120BE9
:1006700097120C9B120CB7120A5275802B75A0F7BB
:10068000116B120CDC120C2220B6E30200E9BD163D
:100690004F12089B120C4775800875A0FD116B75F1
:1006A000800A75A0FD116B75800875A0FB116B7534
:1006B000800A75A0FB116B75801075A0F7116B7522
:1006C000801275A0F7116B75802075A0EF116B7506
:1006D000802875A0EF116B120C6320B6B70200E9F9
:1006E000BD176712089B75802075A0FE116B758081
:1006F0002175A0FE116B75802075A0FD116B7580B2
:100700002875A0FD116B75802975A0FD116B758092
:100710002075A0FB116B75802875A0FB116B75808F
:100720002975A0FB116B120A5275802075A0EF117C
:100730006B75802475A0EF116B75802575A0EF1186
:100740006B12099D20B69F0200E9BD181B12089B81
:10075000120B97120D01120BE1120D0D120D321238
:100760000C2220B6EB0200E97D000200E630B4FD69
:10077000115EBA0110900D777C1079801146112717
:100780000A0D0200CFBA0206900D87020778BA035D
:1007900006900D97020778BA0406900DA702077815
:1007A000BA0506900DB7020778BA0606900DC70283
:1007B0000778BA0706900DD7020778BA0806900D99
:1007C000E7020778BA0906900DF7020778BA0A0619
:1007D000900E07020778BA0B06900E17020778BA38
:1007E0000C06900E27020778BA0D06900E37020706
:1007F00078BA0E06900E47020778BA0F06900E5789
:10080000020778BA1006900E67020778BA110690B0
:100810000E77020778BA1206900E87020778BA138D
:1008200006900E97020778BA1406900EA702077872
:10083000BA1506900EB7020778BA1606900EC702D0
:100840000778BA1706900ED7020778BA1806900EE6
:10085000E70207787A0102076D30B5FD12005EBB32
:1008600001137801900EF77C1079C0120046120037
:10087000270B0200CFBB02087802900F070208671F
:10088000BB03087803900F17020867BB04087804BD
:10089000900F270208677B01020859C2B712006B4C
:1008A000D2B712006BDFF42275801075A0EF120032
:1008B0006B75801475A0EF12006B75801575A0EF35
:1008C00012006B2275800875A0FB12006B227580E8
:1008D0002075A0FE12006B75802475A0FE12006BBF
:1008E0002275800875A0FD12006B2275800875A026
:1008F000FB12006B75800975A0FB12006B227580DE
:100900002075A0EF12006B75802175A0EF12006BAF
:100910002275802075A0DF12006B75802475A0DF22
:1009200012006B2275802075A0FE12006B7580246A
:1009300075A0FE12006B75802575A0FE12006B225B
:1009400075802075A0FD12006B75803075A0FD12BA
:10095000006B75803875A0FD12006B75803A75A02C
:10096000FD12006B2275800875A0FB12006B75806C
:100970000975A0FB12006B2275802075A0F712008C
:100980006B75802875A0F712006B75802C75A0F729
:1009900012006B75802E75A0F712006B22758020F7
:1009A00075A0DF12006B75802475A0DF12006B75D7
:1009B000802575A0DF12006B2275A0FE12006B224D
:1009C00075A0FD12006B2275A0FB12006B2275A0B2
:1009D000F712006B2275A0EF12006B2275A0DF12D8
:1009E000006B2275802075A0FE12006B7580287543
:1009F000A0FE12006B75802C75A0FE12006B758036
:100A00002D75A0FE12006B2275802075A0FD1200CE
:100A10006B75802875A0FD12006B75802A75A0FD8E
:100A200012006B75802B75A0FD12006B2275802063
:100A300075A0FB12006B75802875A0FB12006B750A
:100A4000802A75A0FB12006B75802B75A0FB12002D
:100A50006B2275802075A0F712006B75802875A039
:100A6000F712006B75802A75A0F712006B22758053
:100A70002075A0EF12006B75802875A0EF12006B37
:100A800075802C75A0EF12006B75802D75A0EF128C
:100A9000006B2275802075A0DF12006B75802875B1
:100AA000A0DF12006B75802C75A0DF12006B7580C3
:100AB0002D75A0DF12006B2275801075A0FB12004F
:100AC0006B75801875A0FB12006B75801975A0FB03
:100AD00012006B2275802075A0FE12006B758028B5
:100AE00075A0FE12006B75802A75A0FE12006B7552
:100AF000802B75A0FE12006B2275802075A0FD1260
:100B0000006B75802875A0FD12006B75802A75A09A
:100B1000FD12006B2275801075A0FB12006B7580B2
:100B20001875A0FB12006B75801A75A0FB12006B84
:100B30002275801075A0F712006B75801875A0F7EC
:100B400012006B75801A75A0F712006B2275802059
:100B500075A0EF12006B75802875A0EF12006B7501
:100B6000802A75A0EF12006B75802B75A0EF120024
:100B70006B2275802075A0DF12006B75802875A030
:100B8000DF12006B75802A75A0DF12006B75802B59
:100B900075A0DF12006B2275802075A0FE12006B1D
:100BA00075803075A0FE12006B75803475A0FE1242
:100BB000006B75803575A0FE12006B227580207564
:100BC000A0FD12006B75803075A0FD12006B758062
:100BD0003475A0FD12006B75803575A0FD12006B99
:100BE0002275802075A0FB12006B75802875A0FB14
:100BF00012006B75802C75A0FB12006B75802D7533
:100C0000A0FB12006B2275801075A0EF12006B75AF
:100C1000801475A0EF12006B75801575A0EF12009F
:100C20006B2275802075A0DF12006B75803075A077
:100C3000DF12006B75803475A0DF12006B75803594
:100C400075A0DF12006B2275802075A0FE12006B6C
:100C500075802875A0FE12006B75802A75A0FE12A3
:100C6000006B2275802075A0DF12006B75802875DF
:100C7000A0DF12006B75802A75A0DF12006B227551
:100C8000802075A0FB12006B75802875A0FB1200F8
:100C90006B75802A75A0FB12006B2275802075A0F1
:100CA000FD12006B75802875A0FD12006B75802CFD
:100CB00075A0FD12006B2275801075A0FB12006BF1
:100CC00075801875A0FB12006B75801C75A0FB1257
:100CD000006B75801D75A0FB12006B22758020755E
:100CE000A0EF12006B75803075A0EF12006B75805D
:100CF0003275A0EF12006B75803375A0EF12006B98
:100D000022919B75802D75A0FD12006B22758020AD
:100D100075A0F712006B75802875A0F712006B752F
:100D2000802A75A0F712006B75802B75A0F7120052
:100D30006B2275802075A0EF12006B75803075A056
:100D4000EF12006B75803475A0EF12006B75803563
:100D500075A0EF12006B22202053454C45435420D0
:100D60005343414C452020202053454C45435420BB
:100D700054454D504F2020202020202041656F6C8D
:100D800069616E2020202020202020204172616295
:100D900069616E2020202020417270656767696F4D
:100DA000204D616A6F722020417270656767696FBC
:100DB000204D696E6F7220202020204175676D657F
:100DC0006E746564202020202020202042652D4262
:100DD0006F702020202020202020426C7565732019
:100DE0004D616A6F722020202020426C756573204F
:100DF0004D696E6F722020202020204368726F6D35
:100E000061746963202020202044696D2041727044
:100E1000656767696F20202020202020446F726959
:100E2000616E2020202020204861726D6F6E696302
:100E3000204D696E6F72202020202020496F6E693E
:100E4000616E202020202020202020204C6F637203
:100E500069616E2020202020202020204C796469A8
:100E6000616E20202020202020202020204D616A3B
:100E70006F7220202020202020202020204D696E0D
:100E80006F7220202020204D656C6F6469632F4AAB
:100E9000617A7A206D696E2020204D69786F6C79B7
:100EA0006469616E2020204E6561706F6C697461A9
:100EB0006E204D616A6F724E6561706F6C6974610E
:100EC0006E204D696E6F7250656E7461746F6E69DD
:100ED00063204D616A6F7250656E7461746F6E69E4
:100EE00063204D696E6F72202020506879726967A7
:100EF00069616E2020202020202054454D504F3A1B
:100F00002038302020202020202054454D504F3ABA
:100F10002031303020202020202054454D504F3AA1
:100F20002031323020202020202054454D504F3A8F
:100F3000203134302020202043484F4F5345205348
:100F400043414C452121202043484F4F53452054D5
:100F5000454D504F2121202043484F4F53452046B7
:070F600049525354212120E6
:00000001FF
